:020000040800F2
:200000000000022049BA000823A0000825A0000827A0000829A000082BA0000800000000A8
:200020000000000000000000000000002DA000082FA000080000000031A0000865A000082E
:2000400099BA000899BA000899BA000899BA000899BA000899BA000899BA000899BA0008C8
:2000600099BA000899BA000899BA000899BA000899BA000899BA000899BA000835A0000826
:2000800099BA000899BA000899BA000899BA000899BA000899BA000899BA000899BA000888
:2000A00099BA000899BA000899BA000899BA000899BA000899BA000899BA000899BA000868
:2000C00099BA000899BA000899BA000899BA000899BA000899BA000899BA000899BA000848
:2000E00099BA000899BA000899BA000899BA000899BA000899BA000899BA000899BA000828
:2001000099BA000899BA000899BA000899BA000899BA000899BA000841A0000899BA000879
:2001200099BA000899BA000899BA000899BA000899BA000899BA000899BA000899BA0008E7
:2001400099BA000899BA000899BA00084DA0000899BA000899BA000899BA000899BA00082D
:2001600099BA000899BA000899BA000899BA000899BA000859A0000899BA0008000000005C
:2001800099BA000899BA0008000000000000000010B5054C237833B9044B13B10448AFF30B
:2001A00000800123237010BD600200200000000074E4000808B5034B1BB103490348AFF349
:2001C000008008BD000000006402002074E4000801F0FF01102A2BDB10F0070F08D010F8CD
:2001E000013B013A8B422DD010F0070F42B3F6D1F0B441EA012141EA014122F007047FF002
:2002000000070023F0E80256083C85EA010586EA010685FA47F5A3FA87F586FA47F6A5FA24
:2002200087F68EB9EED1F0BC01F0FF0102F0070232B110F8013B013A83EA010313B1F8D143
:200240000020704701387047002D06BF35460338073815F0010F07D1013015F4807F02BF09
:20026000013015F4C03F0130F0BC0138704700BF034613F8012B002AFBD1181A0138704721
:2002800081F0004102E000BF83F0004330B54FEA41044FEA430594EA050F08BF90EA020F8D
:2002A0001FBF54EA000C55EA020C7FEA645C7FEA655C00F0E2804FEA5454D4EB5555B8BF63
:2002C0006D420CDD2C4480EA020281EA030382EA000083EA010180EA020281EA0303362D1A
:2002E00088BF30BD11F0004F4FEA01314FF4801C4CEA113102D0404261EB410113F0004F84
:200300004FEA03334CEA133302D0524263EB430394EA050F00F0A780A4F10104D5F1200EC1
:200320000DDB02FA0EFC22FA05F2801841F1000103FA0EF2801843FA05F359410EE0A5F109
:2003400020050EF1200E012A03FA0EFC28BF4CF0020C43FA05F3C01851EBE37101F0004515
:2003600007D54FF0000EDCF1000C7EEB00006EEB0101B1F5801F1BD3B1F5001F0CD349088F
:200380005FEA30004FEA3C0C04F101044FEA445212F5800F80F09A80BCF1004F08BF5FEA6E
:2003A000500C50F1000041EB045141EA050130BD5FEA4C0C404141EB010111F4801FA4F178
:2003C0000104E9D191F0000F04BF01460020B1FA81F308BF2033A3F10B03B3F120020CDA1D
:2003E0000C3208DD02F1140CC2F10C0201FA0CF021FA02F10CE002F11402D8BFC2F1200C96
:2004000001FA02F120FA0CFCDCBF41EA0C019040E41AA2BF01EB0451294330BD6FEA0404CF
:200420001F3C1CDA0C340EDC04F11404C4F1200220FA04F001FA02F340EA030021FA04F320
:2004400045EA030130BDC4F10C04C4F1200220FA02F001FA04F340EA0300294630BD21FA3E
:2004600004F0294630BD94F0000F83F4801306BF81F480110134013D4EE77FEA645C18BF1C
:200480007FEA655C29D094EA050F08BF90EA020F05D054EA000C04BF1946104630BD91EA56
:2004A000030F1EBF0021002030BD5FEA545C05D14000494128BF41F0004130BD14F58004B3
:2004C0003CBF01F5801130BD01F0004545F0FE4141F470014FF0000030BD7FEA645C1ABF2F
:2004E000194610467FEA655C1CBF0B46024650EA013406BF52EA033591EA030F41F400211E
:2005000030BD00BF90F0000F04BF0021704730B54FF4806404F132044FF000054FF000014A
:2005200050E700BF90F0000F04BF0021704730B54FF4806404F1320410F0004548BF404296
:200540004FF000013EE700BF42004FEAE2014FEA31014FEA02701FBF12F07F4393F07F4F10
:2005600081F06051704732F07F4208BF704793F07F4F04BF41F40021704730B54FF4607424
:2005800001F0004521F000411CE700BF50EA010208BF704730B54FF000050AE050EA010206
:2005A00008BF704730B511F0004502D5404261EB41014FF4806404F132045FEA915C3FF4F0
:2005C000D8AE4FF003025FEADC0C18BF03325FEADC0C18BF033202EBDC02C2F1200300FA3C
:2005E00003FC20FA02F001FA03FE40EA0E0021FA02F11444BDE600BF70B54FF0FF0C4CF445
:20060000E06C1CEA11541DBF1CEA135594EA0C0F95EA0C0F00F0DEF82C4481EA030621EAF1
:200620004C5123EA4C5350EA013518BF52EA033541F4801143F4801338D0A0FB02CE4FF074
:200640000005E1FB02E506F00042E0FB03E54FF00006E1FB03569CF0000F18BF4EF0010E9E
:20066000A4F1FF04B6F5007F64F5407404D25FEA4E0E6D4146EB060642EAC62141EA555161
:200680004FEAC52040EA5E504FEACE2EB4F1FD0C88BFBCF5E06F1ED8BEF1004F08BF5FEA36
:2006A000500E50F1000041EB045170BD06F0004646EA010140EA020081EA0301B4EB5C04E5
:2006C000C2BFD4EB0C0541EA045170BD41F480114FF0000E013C00F3AB8014F1360FDEBFC7
:2006E000002001F0004170BDC4F10004203C35DA0C341BDC04F11404C4F1200500FA05F347
:2007000020FA04F001FA05F240EA020001F0004221F0004110EBD37021FA04F642EB0601A1
:200720005EEA430E08BF20EAD37070BDC4F10C04C4F1200500FA04F320FA05F001FA04F24F
:2007400040EA020001F0004110EBD37041F100015EEA430E08BF20EAD37070BDC4F1200516
:2007600000FA05F24EEA020E20FA04F301FA05F243EA020321FA04F001F0004121FA04F2B9
:2007800020EA020000EBD3705EEA430E08BF20EAD37070BD94F0000F0FD101F0004640005B
:2007A00041EB010111F4801F08BF013CF7D041EA060195F0000F18BF704703F000465200BD
:2007C00043EB030313F4801F08BF013DF7D043EA0603704794EA0C0F0CEA135518BF95EA39
:2007E0000C0F0CD050EA410618BF52EA4306D1D181EA030101F000414FF0000070BD50EA3C
:20080000410606BF1046194652EA430619D094EA0C0F02D150EA013613D195EA0C0F05D178
:2008200052EA03361CBF104619460AD181EA030101F0004141F0FE4141F470014FF00000E2
:2008400070BD41F0FE4141F4780170BD70B54FF0FF0C4CF4E06C1CEA11541DBF1CEA135570
:2008600094EA0C0F95EA0C0F00F0A7F8A4EB050481EA030E52EA03354FEA013100F08880CB
:200880004FEA03334FF0805545EA131343EA12634FEA022245EA111545EA10654FEA002629
:2008A0000EF000419D4208BF964244F1FD0404F5407402D25B084FEA3202B61A65EB0305CC
:2008C0005B084FEA32024FF480104FF4002CB6EB020E75EB030E22BFB61A754640EA0C0042
:2008E0005B084FEA3202B6EB020E75EB030E22BFB61A754640EA5C005B084FEA3202B6EBA3
:20090000020E75EB030E22BFB61A754640EA9C005B084FEA3202B6EB020E75EB030E22BF51
:20092000B61A754640EADC0055EA060E18D04FEA051545EA16754FEA06164FEAC30343EA5D
:2009400052734FEAC2025FEA1C1CC0D111F4801F0BD141EA00014FF000004FF0004CB6E7B0
:2009600011F4801F04BF01430020B4F1FD0C88BFBCF5E06F3FF6AFAEB5EB030C04BFB6EB12
:20098000020C5FEA500C50F1000041EB045170BD0EF0004E4EEA113114EB5C04C2BFD4EB50
:2009A0000C0541EA045170BD41F480114FF0000E013C90E645EA060E8DE60CEA135594EA21
:2009C0000C0F08BF95EA0C0F3FF43BAF94EA0C0F0AD150EA01347FF434AF95EA0C0F7FF438
:2009E00025AF104619462CE795EA0C0F06D152EA03353FF4FDAE1046194622E750EA410659
:200A000018BF52EA43067FF4C5AE50EA41047FF40DAF52EA43057FF4EBAE12E74FF0FF3CE3
:200A200006E000BF4FF0010C02E000BF4FF0010C4DF804CD4FEA410C7FEA6C5C4FEA430C83
:200A400018BF7FEA6C5C1BD001B050EA410C0CBF52EA430C91EA030F02BF90EA020F00201C
:200A6000704710F1000F91EA030F58BF994208BF90422CBFD8176FEAE37040F00100704729
:200A80004FEA410C7FEA6C5C02D150EA013C07D14FEA430C7FEA6C5CD6D152EA033CD3D0FF
:200AA0005DF8040B704700BF8446104662468C461946634600E000BF01B5FFF7B7FF002891
:200AC00048BF10F1000F01BD4DF808EDFFF7F4FF0CBF012000205DF808FB00BF4DF808EDC1
:200AE000FFF7EAFF34BF012000205DF808FB00BF4DF808EDFFF7E0FF94BF012000205DF8D4
:200B000008FB00BF4DF808EDFFF7CEFF94BF012000205DF808FB00BF4DF808EDFFF7C4FF78
:200B200034BF012000205DF808FB00BF4FEA410C7FEA6C5C02D150EA013C0AD14FEA430C06
:200B40007FEA6C5C02D152EA033C02D14FF0000070474FF0010070474FEA410212F50012C1
:200B600015D211D56FF47873B3EB625212D94FEAC12343F0004343EA505311F0004F23FA4D
:200B800002F018BF404270474FF00000704750EA013005D111F0004008BF6FF000407047BE
:200BA0004FF00000704700BF4FEA4102B2F1E04324BFB3F5001CDCF1FE5C0DD901F0004C4D
:200BC0004FEAC0024CEA5070B2F1004F40EB830008BF20F00100704711F0804F21D113F12F
:200BE0003872BCBF01F00040704741F480114FEA5252C2F11802C2F1200C10FA0CF320FA76
:200C000002F018BF40F001004FEAC1234FEAD32303FA0CFC40EA0C0023FA02F34FEA4303C2
:200C2000CCE77FEA625307D150EA01331EBF4FF0FE4040F44000704701F0004040F0FE4079
:200C400040F40000704700BF53B94AB9002908BF00281CBF4FF0FF314FF0FF3000F074B9EE
:200C6000ADF1080C6DE904CE00F006F8DDF804E0DDE9022304B070472DE9F047089E044660
:200C80008846002B40F085808A42154648D9B2FA82F24AB1C2F1200701FA02F320FA07F7E1
:200CA000954047EA030894404FEA154E230CB8FBFEF71FFA85FC0EFB178843EA084307FB20
:200CC0000CF1994209D9EB1807F1FF3080F0E380994240F2E080023F2B445B1AA4B2B3FBC7
:200CE000FEF00EFB103344EA034400FB0CFCA44509D92C1900F1FF3380F0CB80A44540F239
:200D0000C88002382C4440EA0740A4EB0C0400271EB1D4400023C6E900433946BDE8F08717
:200D2000002A53D0B2FA82F2002A40F0B680491B4FEA154E1FFA85F80127B1FBFEFC230C23
:200D40000EFB1C1143EA014308FB0CF1994207D9EB180CF1FF3002D2994200F2EC8084462B
:200D6000591AA3B2B1FBFEF00EFB101443EA044408FB00F8A04507D92C1900F1FF3302D273
:200D8000A04500F2DC801846A4EB080440EA0C40BEE78B4208D9002E78D00027C6E9000111
:200DA00038463946BDE8F087B3FA83F77FB98B4202D3824200F2BD80841A61EB0303012015
:200DC0009846002EA9D0C6E90048A6E7FFDEC7F12005BB4022FA05FC4CEA030C01FA07F4FD
:200DE00020FA05F821FA05F34FEA1C4E48EA0404B3FBFEF9210C0EFB19331FFA8CF841EAFD
:200E0000034309FB08FA9A4502FA07F200FA07F10BD91CEB030309F1FF3080F088809A454F
:200E200040F28580A9F102096344A3EB0A03A4B2B3FBFEF00EFB103344EA034400FB08F8E6
:200E4000A04508D91CEB040400F1FF336BD2A04569D90238644440EA0940A4EB0804A0FBAB
:200E600002894C45C6464B4654D351D0002E69D0B1EB0E0264EB030404FA05F522FA07F3FA
:200E8000FC401D43C6E90054002746E73746304643E7184637E707461FE7C2F1200320FA83
:200EA00003F7954001FA02F021FA03F34FEA154E3843010CB3FBFEF71FFA85F80EFB1733B5
:200EC00041EA034107FB08F38B4204FA02F407D9691807F1FF3C28D28B4226D9023F2944DD
:200EE000CB1A81B2B3FBFEF00EFB103341EA034100FB08F38B4207D9691800F1FF3C10D251
:200F00008B420ED902382944C91A40EA074714E74145ABD2B8EB020E69EB0C020138134676
:200F2000A4E76046F0E7184695E76746D8E781467BE7384645E7ACF1020C2B4410E7023845
:200F40002C4421E73746E8E6704700BF2DE9F04F066887B00446304600F029FF02900028CC
:200F600040F02281206800F0F3FE002800F01C81206800F0EDFE830748BF2268206842BF79
:200F8000536903F00203536100F0E2FE070300F10E81206800F0DCFE45030CD5206800F09C
:200FA000E3FE2546834606F5106A4FF00009BBF1000F40F0BD81206800F0CAFE002815DADF
:200FC000D6F8043823F00103C6F8043894F8F433012B40F04282002184F8F413204600F029
:200FE00071FB2268536903F000435361206800F0AFFE00050BD5D6F80838D90702D5204620
:2010000007F0D2FF2268536903F400635361206800F09EFEC20435D506F500656B68206815
:2010200023F001036B60102100F03EFC606806F510634FF67F31029A904240F01282EB69C2
:2010400043F00113EB61236B002B00F01C82D5F8843043F00B03C5F884306B6C43F00B036B
:201060006B64D6F80038217C206823F4FE63C6F8003804F5717200F0B9FE2268536903F448
:2010800080535361206800F063FE830416D5206800F091FE206800F029FCE060256802F01B
:2010A00003FB227B0146284600F066FB204607F068FF2268536903F400535361206800F00F
:2010C00047FEC7062AD52268936923F010039361356AC5F34343022B05F00F0740F0DE81BB
:2010E00047F6F0731D4214D01C2303FB0747C5F30A152A46D7F80812304600F0B7FDD7F869
:2011000008322B44C7F80832D7F814321D44C7F814522268936943F010039361206800F05A
:2011200017FE060707D5204607F027FF2268536903F008035361206800F00AFEC50208D512
:201140000021204607F050FF2268536903F480135361206800F0FCFD800208D500212046E7
:2011600007F03EFF2268536903F400135361206800F0EEFD410007D5204607F039FF226898
:20118000536903F080435361206800F0E1FD42070AD523685D686B0702D5204607F02CFF8A
:2011A000226853682B43536007B0BDE8F08F2068DFF80CB300F0D0FD06F53065824604F5C2
:2011C00001780027BAF1000F3FF4E3AE1AF0010F00F0A780FAB211462068039200F0CCFDE7
:2011E00010F0010F8146039A4CD00123AB6023682069D3F840C003F5306303EB4713012855
:20120000996854D1080714D5DC4504D90A0444BF4FF400429A602046039307F097FE04F5A1
:2012200071720121206800F0E1FD039B08229A6028E0880601D52022F9E711F0280F21D1D9
:20124000DC4504D9090402D54FF40042EFE71B69D8F80010C3F31203CB1AC8F81030D8F86D
:2012600004301944C8F804102046114607F074FE47B9D4F810322BB904F57172012120686B
:2012800000F0B4FD19F0080F33D0236820691A6C03F5306303EB47130128996815D15A456E
:2012A00016D9090444BF4FF40041996010E08348844505D10804C7D4880644BF20219960E6
:2012C0001146204607F048FEDCE77C488242E8D02046039207F03AFE039A5A4507D9216941
:2012E000012904D104F57172206800F07FFD0823AB6019F0100F1CBF1023AB6019F0200F70
:2013000009D02169012904D104F57172206800F06DFD2023AB6019F4005F1CBF4FF4005382
:20132000AB6001374FEA5A0A203508F11C0849E71BF0010F00F089805FFA89F3194620685B
:20134000039300F022FDC307074624D5D6F834380399012009F00F0200FA02F223EA0203D7
:20136000C6F834382369CAF80800834202BFD5E911239B18AB64204607F0F7FD21690129AE
:2013800009D1B9F1000F06D1236D23B904F57172206800F02BFD380744BF0823CAF8083094
:2013A000F90644BF1023CAF808307A0644BF4023CAF80830BB0744BF0223CAF808303F06F5
:2013C00043D5D5E91473BB423FD8FF1A6B6C226804929F4228BF1F4602F51063033703EBCD
:2013E0004913BF080593059B996989B2B942D5E9143228D3934200D963B9049B09F00F01E9
:20140000D3F83428012000FA01F122EA0102C3F834281AE0A3EB02086B6C039A04989845F3
:2014200028BF9846237C0093A96C1FFA88F300F01FFBAB6C4344AB646B6D08F103074344F3
:20144000BF086B65CFE79342D7D909F101094FEA5B0B1C350AF1200AA9E5204607F0BCFDFD
:20146000BFE599601A6822F400121A60C3F80812D3F8002222F40012C3F80022029A013215
:2014800002922033D7E56B6943F4005343F02B036B612B6943F00B032B61E2E5062B7FF452
:2014A00038AE082204F57171304600F0DFFB1C2303FB0747C5F30A1526E600BF0A31544FF6
:2014C0000A30544F90F8BC23012A10B504460BD0012280F8BC2384F83810006800F028FCF9
:2014E000002084F8BC0310BD0220FCE770B501F00F05044611F0800FC5EBC5004FEA80008D
:201500004FF01C061FD006FB054600F13C010120214486F83D008A604A780D70CB7002B1A9
:20152000CD80022B04BF00230B7194F8BC33012B12D0012384F8BC33206800F0E2F9002044
:2015400084F8BC0370BD06FB054600F5FE710020214486F8FD01DEE70220F3E738B501F0D3
:201560000F051C2404FB050104FB050401F5FE71C4F810320023C4F80822C4F8143284F820
:20158000FD3184F8FC5103690068012B08BFC4F80C22DAB21DB900F0F3F9002038BD00F060
:2015A0007BFAFAE738B501F00F051C2404FB050104FB05043C312365002363650123A2648C
:2015C00084F83D3084F83C5003690068012B08BFE264DAB21DB900F0D3F9002038BD00F0EA
:2015E0005BFAFAE738B5436801F00F059D4204462ED811F0800F4FF01C021FD002FB05010A
:2016000002FB050301223C3381F83D2001229A701D7094F8BC1391421CD084F8BC231946CF
:20162000206800F031FB2DB904F57172217C206800F0DCFB002084F8BC0338BD02FB010307
:2016400002FB0101002203F5FE7381F8FD21DDE70120F2E70220F0E738B5436801F00F0218
:201660009A4204462AD8C2EBC20311F0800F4FEA83034FF01C0018D000FB024003F13C01D0
:201680000123214480F83D3000258D700A7094F8BC33012B14D0012384F8BC33206800F0AE
:2016A0001EFB84F8BC53284638BD00FB024003F5FE710023214480F8FD31E5E70120F3E78A
:2016C0000220F1E7704700000A4B013B0FD00269002AFADA0369074A43F001030361013AED
:2016E00005D0036913F00103F9D1184670470320704700BF410D030084B038B505AD85E899
:201700000E000A9B012B044625D1836B23F480338363C36823F4840323F04003C360C3689F
:2017200023F44013C360119B012B02BFC36843F48013C360FFF7C8FF089B012B07D1A368FC
:2017400043F00603A360A36843F02003A360BDE8384004B07047C36843F04003C360FFF7A4
:20176000B3FF0E9B23B9A36B43F48033A363E3E7A36B23F48033F9E7022A58D12E4B2F4A6B
:201780000B44934247D92E4B2E4A0B44934244D9A1F574032C4AA3F5105393423FD9A1F1D6
:2017A000837302F5C332A3F5E743A032934238D9264B274A0B44934235D9264B02F592229D
:2017C0000B4402F5787293422FD9234B02F5C3220B4402F52072934229D9A1F1B77302F550
:2017E000B712A3F5585302F55872934221D91B4B02F512220B4402F5F862934294BF0723CA
:201800000623C26822F47052C260C26842EA8323C360002070470F23F3E70E23F1E70D2340
:20182000EFE70C23EDE70B23EBE70A23E9E70923E7E70823E5E700BF405327FFFF340C002A
:20184000401E1BFF3F420F007F4F120060B6E5FE5FE3160000D3CEFEC05BB3FEE05459FE59
:20186000836843F00103836000207047836823F0010383600020704708B5C368012923F0AB
:20188000C043C36008D1C36843F00053C360322003F036F8002008BD19B9C36843F080432A
:2018A000F4E70120F7E70000890141F02001064A0161013A05D0036913F02003F9D11846F6
:2018C00070470320704700BF410D03001023064A0361013A05D0036913F01003F9D11846C6
:2018E00070470320704700BF410D0300D0F8083813F0060004D013F0020F14BF02200F202A
:20190000704770B50E78012506F00F039D404B7800F50064012B00EB4610E36918D11D433C
:20192000E561D0F800391A0410D48A68D0F80039C2F30A021A43CB7842EA834343EA865312
:2019400043F0805343F40043C0F80039002070BD43EA0545E561D0F8003B1B04F6D48B682D
:20196000D0F8002BC3F30A031343CA7843EA824343F0805343F40043C0F8003BE6E70000E7
:201980004B78DFF8E8C0F0B50E784D69364F012B00EB461446D104F51063BDB91D692F4040
:2019A0001F611D6945F400251D611D6905EA0C05012A1D6123D10A6902B15A61D4F800393C
:2019C00043F00443C4F800390020F0BDD3F810E00EEA0C0CC3F810C0D3F810C00CEA0707D6
:2019E0001F618F68AF421D6938BF4F6145F400251D614D691F69C5F312053D43D8E7D4F85E
:201A0000003943F00443C4F800394B69002BDBD0D0F8342806F00F060123B3401343C0F840
:201A20003438D1E704F53063186900EA0C001861186938401861886805B148611D6945F486
:201A400000251D611D69C0F312002843012A186102D1CA6802B15A61D4F8003B43F0044395
:201A6000C4F8003BB0E700BFFFFF07E00000F8FF10B59DF8084044B9033301329B0800EBA7
:201A8000023001EB83038B4201D1002010BD51F8042B0260F7E700002DE9F3414D780F78C8
:201AA0004B69CE78DFF8B8C1DFF8B8E1012D00EB471440F08E8004F51065D5F810806BBBC9
:201AC00008EA0C0CC5F810C0D5F810C04CF4002CC5F810C0D5F810C00CEA0E0EC5F810E07D
:201AE000012A4ED10B6903B16B61012E0CD1D0F8083813F4807FD4F800390CBF43F0005338
:201B000043F08053C4F80039D4F8003943F00443C4F80039002002B0BDE8F08108EA0E0E60
:201B2000C5F810E0D5F810E00EEA0C0CD1F808E0C5F810C00EEB030C0CF1FF3CBCFBFEFEFA
:201B4000DFF824C1D5F810800CEACE4C4CEA080CC5F810C0D5F810E0C3F3120C4CEA0E0CA4
:201B6000012EC5F810C0BBD1D5F810C02CF0C04CC5F810C0D5F810C04CF0005CC5F810C009
:201B8000AEE7D4F80059012E45F00445C4F800590BD0002BBED0D0F8343807F00F020127D1
:201BA00097401F43C0F83478B4E7D0F8085815F4807FD4F800590CBF45F0005545F0805539
:201BC000C4F8005900929BB23A46C968FFF750FFA0E704F530673D6905EA0E053D613D6918
:201BE00005EA0C053D618D681BBB3B69C5F312051D433D613B6943F40023012A3B6102D173
:201C0000CB6803B17B61012E0CD1D0F8083813F4807FD4F8003B0CBF43F0005343F0805389
:201C2000C4F8003BD4F8003B43F00443C4F8003B70E7DFF834C0D7F810E02B44013BB3FBFB
:201C4000F5F30CEAC34C4CEA0E0CC7F810C09BB2D7F810C06B43C3F3120343EA0C03CCE764
:201C6000FFFF07E00000F8FF0000F81F0332920801EB820200F58050914201D108467047C3
:201C8000036841F8043BF7E74A780B78012A00EB431012D1D0F80029002A06DB2BB1D0F852
:201CA000003923F08043C0F80039D0F8003943F40013C0F8003900207047D0F8002B002AF4
:201CC00006DB2BB1D0F8003B23F08043C0F8003BD0F8003B43F40013C0F8003BEBE70B78E6
:201CE0004A7800EB4310CB78012AA3F10203DBB20FD1D0F80029012B22F40012C0F800294A
:201D000005D8D0F8003943F08053C0F8003900207047D0F8002B22F40012012BC0F8002BED
:201D20009EBFD0F8003B43F08053C0F8003BEEE7D0F8003823F4FE63C0F80038D0F800380D
:201D4000090101F4FE611943C0F80018002070474269806910407047D0F8183800F500601A
:201D6000C0691840000C7047D0F8183800F50060C069184080B2704700EB411100F50060B6
:201D8000D1F8082B40691040704710B5D0F81048D0F8343800EB411001F00F01CB4000F541
:201DA0001060DB018068DBB22343184010BD406900F001007047D0F8003923F4FF6323F0F9
:201DC0000703C0F8003900F500639A6802F00602042A02BFD0F8002942F00302C0F80029BC
:201DE0005A6842F480725A600020704730B5056C104CA54200F5306303D9D0F8004B002C2C
:201E000016DB00241C611C6944F400241C611C6944F018041C611C69012944F0C0441C611C
:201E200001BF5A61D0F8003B43F08023C0F8003B002030BD0A30544FD0F8003423F003035C
:201E400010B5C0F80034D0F8004401F003032343012900F58062C0F8003404D14BF68033B2
:201E60005360002010BD0229FBD141F27073F7E737B500250195D0F840340193019B23F0B1
:201E80002E030193019B43F480730446C0F84034642002F035FD019B23F48073C4F84034C3
:201EA0000A2002F02DFD284603B030BD82B000230193D0F840340193019B23F02E030193A1
:201EC000019BDA0406D4012902BF019B43F48053C0F84034019BDB0405D521B9019B23F40F
:201EE0008053C0F84034002002B0704784B038B5044605A880E80E000023C4F8003EA36BA1
:201F000043F40013A363A36B23F40023A363A36B23F48023A363E36BDA053FD5079B032B44
:201F2000D4F800343CD143F00403C4F8003410212046FFF7B9FC2046FFF7C8FC0023069946
:201F400004F5A0624FF0FF301D4699422BD101212046FFF7ABFFC82002F0D2FC0023A361E7
:201F60004FF0FF336361E36BDB0521D54FF40073636203F18073A362114BC4F80031089BB5
:201F80001BB9A36943F01003A361A2690D4B1343A361BDE83840002004B07047D4F80034B2
:201FA00023F00403C1E790600133D5602032CCE78023636203F5C003A362034BDDE700BF08
:201FC0000003E000080020A3E000400082B000230193D0F8403401930198C0F3414002B0FB
:201FE000704700F58060806880B270472DE9F04100EB411505F5A0649DF81C6007464FF061
:020000040800F2
:20200000FF30A0604FFA82FC032E62D8DFE806F00257025040F29D40BCF1000FE06003DA0F
:20202000E06840F4807041E0F86BC0053BD40020D7F8188401F00F040121A14041EA080116
:20204000C7F81814B96941F00071B96107F5806EBDF820709DF818109B05C7F30A0703F06D
:20206000FE53D2023B4302F4F0421343B204BCF1000F02F44022B4BF4FF400440024134301
:2020800002290CBF4FF40031002123430B43C5F80035032E02BFD5F8003543F00053C5F8D8
:2020A0000035BDE8F081E06840F06000E060BEE740F29D60BCF1000FE060B8DAB0E740F292
:2020C0002520BCF1000FE060B1DAE06840F4C070ECE70120ACE700F58060406980B270479A
:2020E00000EB411101F5A062D1F8003513F4802FD1F8003543F08043C1F800351ED1C36AF9
:2021000013F47F0FD1F8003537D123F00043C1F80035D1F8003543F00043C1F80035D1F8B5
:20212000003523F40043C1F8003540F2E933013B02D011680029FADB00207047D0F810346C
:2021400013F47F0FD1F8003517D123F00043C1F80035D1F8003543F00043C1F80035D1F895
:20216000003523F40043C1F8003540F2E933013BE2D011680029FADBDEE743F00043C1F83B
:202180000035D9E700EB4111064AC1F81025D1F8003523F0804343F00043C1F80035002077
:2021A000704700BF000008802DE9F341C36BDB05164604464A7817D50D79ADB94EB94B79BE
:2021C000012B11D11146FFF7DDFF002002B0BDE8F081012E08D100EB4213D3F80C0520F0AC
:2021E0006000C3F80C054D710869002861D00B8901381844B0FBF3F080B2B0F5807F03D9C2
:202200001B020B614FF48070CF7817B10B8943430B6191F80AC00B694FEA4C7C0CF0C04C9D
:20222000C3F3120804EB42154CEA080C4CEAC040C5F8100516B1C868C5F8140504F5806C84
:20224000DCF80800D5F800E52EF0005EC5F800E5C043D5F800E5400700F0005040EA0E005E
:20226000C5F800052548D5F800E5C0F800E0D0F800E02EF0804EC0F800E0D0F800E0D7B189
:202280004EF4004EC0F800E0D0F800E04EF0004EC0F800E00068C5F8000557EA060094D174
:2022A000002B92D0C879032813D8DFE800F0071A071A0120A8E72EF4004EE3E7E56AD81C14
:2022C000ADB2C0F38F00854203D2A06940F02000A061002000909BB2C9682046FFF7C8FB1A
:2022E00073E7DCF81050D81CADB2C0F38F008542EFD2A06940F08060EAE700BF7C020020EC
:20230000836823F0010310B5102104468360FFF7CBFA2046FFF7DAFA04F5A06304F5E06078
:2023200019460A6822F0802242F0804241F8202B8142F6D100211A6822F4004242F0404267
:202340001A600131B1F57A7F02D81A68002AF8DB20338342EFD14FF0FF33C4F814346361C8
:20236000A36843F00103A360002010BD2DE9F043044690F8B80285B001289DF830709DF82E
:2023800034C0BDF838E024D0012084F8B802282000FB0140002602F07F08D50980F83D601B
:2023A00080F8383080F8391080F83FC080F83A8080F83B5080F83C70A0F840E0CDE901CE6F
:2023C00000972068FFF712FE84F8B86205B0BDE8F0830220FAE790F8B832012B10B50446C5
:2023E00009D0012380F8B8320068FFF779FE002084F8B80210BD0220FCE72DE9F0410746ED
:202400008AB0002841D090F8B932046803F0FF021BB980F8B82206F05DFE032387F8B9326F
:20242000E36B3C4613F4807354F8100B08BF3B61FFF71CFA0FCC6D460FC50FCC0FC594E86F
:20244000030085E8030007F104083E4698E80E003868FFF751F956F8100B0121FFF70CFA8C
:202460000FCE6D460FC50FCE0FC594E8030085E8030098E80E003868FFF738FD012387F85C
:20248000B93200200AB0BDE8F0810120FAE7F0B59DF81470069EBDF81C50282404FB010C84
:2024A000002F14BF4FF0020E4FF0030E8CF83B208CF83F308CF842E0032B17D8DFE803F02C
:2024C000023C2B2B012F11D182B9282303FB010335B983F85170282303FB0103022203E050
:2024E00093F85140002CF6D183F84220282404FB0103002283F839101946C3E9116583F8BF
:202500005C20DA6483F85D203831027C0068BDE8F040FFF749BE04FB01042AB994F85130F4
:2025200043B984F84220E1E794F8503013B984F84230DBE70223FAE704FB01040023F6E767
:202540002DE9F04F066885B005463046FFF72FFC012840F0ED802868FFF7FAFB002800F048
:20256000E7802868FFF7F4FB800248BF2B68286844BF4FF400125A61FFF7EAFBC10248BF1B
:202580002B68286844BF4FF480125A61FFF7E0FB420148BF2B68286844BF4FF080625A6168
:2025A000FFF7D6FB830748BF2B68286844BF02225A61FFF7CDFB870010D5D6F8403423F03F
:2025C0002E03C6F84034284606F0CCFD01212868FFF732FC2B684FF000525A612868FFF730
:2025E000B7FBC40143D52C68D4F840340293D4F840340393039B23F02E030393029B980759
:202600000DD5029BD90706D5A36923F00053A361284606F0A3FD039B43F002030393029BFD
:202620001A071AD5039B43F008030393029B5B0740F18980A96902297DD1029B286803F430
:20264000C023B3F5802F18BF0121FFF7F5FB284606F08DFD284606F081FD029B9F0642BF4E
:20266000039B43F020030393039BC4F840342868FFF76EFB000705D5284606F06BFD2B68D3
:2026800008225A612868FFF763FB810112D52868FFF721FD06F5A06300904FF000090193FA
:2026A00028274FF00208AB6828684B455AD84FF0007343612868FFF74BFBC30638D52C6891
:2026C000A36923F01003A361266AC6F34342022A29D1C6F30A18B8F1000F24D006F00F063E
:2026E000282707FB0657796CE9B142462046FFF7BDFA7B6C43447B64FB6C4344FB6404F57F
:20270000A0647301E2181169B64A0A405AB1E25822F0804242F00042E25097F8503083F042
:20272000010387F850302A68936943F01003936105B0BDE8F08FEB68012B04BF4EF66022ED
:20274000C4F8042483E7284606F015FDD4F840342A6823F02E03C4F84034936943F00053ED
:2027600093617AE7009A09F00F0322FA03F3DA0740F185804FEA4913019A5FFA89F699583D
:202780004FEA461B00F5A06A0BEB0A0411F4004FA16800F0EF804B0713D50421A160E16837
:2027A00041F00201E160A168880539D5E368286843F00203E3603146FFF792FC4FF40073F9
:2027C000CBE0A168890602D52021A160EBE7A1680A0711D5E16841F00201E16007FB0651B4
:2027E0004FF0050C81F85DC01021A1600821A1603146FFF775FCD6E7A1684B05D3D5E168B2
:2028000041F00201E1603146FFF76AFC1021A16007FB0651082081F85D004FF48061D4E708
:20282000A168C9073DD5296949B107FB065C2069DCF84810C0F31200091ACCF84C1007FBFE
:20284000065C01220021CCF858108CF85D20A2609CF83F1011F0FD0F14D1E368286843F0C0
:202860000203E3603146FFF73BFC1023A36007FB065696F8503083F0010386F8503009F15B
:20288000010910E70329F2D15BF80A1041F000514BF80A1028468CF85C20314606F066FCBF
:2028A000E5E7A1688A0730D5E16807FB065021F00201E16090F85D10012902D180F85C10E1
:2028C00017E10529FAD0062901D008290FD107FB0651886D01300328886581BF0020886513
:2028E000042081F85C0098BF81F85C8004E0032940F0FF8080F85C805BF80A1021F08041E1
:2029000041F000414BF80A10F3E0A168286811F0800110D0E36807FB065243F00203E360FA
:20292000936D01339365062382F85D303146FFF7D7FB802311E0A368DB06A0D507FB0652AD
:2029400092F83F30032B0AD19165E36843F00203E3603146FFF7C4FB1023A3608FE713F0DE
:20296000FD03F9D193652B69002BF5D1032382F85D30EAE711F0040C06D00423A360E368B6
:2029800043F00203E3607AE7A16811F0200114D02023A36007FB065393F83D20012A7FF425
:2029A0006EAF83F83DC083F85C80E36843F00203E3603146FFF794FB61E7A3685A0613D5CE
:2029C00007FB0653042283F85D20012283F83D209965E36843F00203E3603146FFF780FBD7
:2029E0004023BAE70000F81FA16811F4007105D0E36843F00203E3603146DDE6A368DB077B
:202A00000FD5E26807FB065A42F00202CAF85810E2603146FFF764FB0122A2608AF85D2094
:202A20002DE7A16809070ED50823A360E36843F00203E3603146FFF753FB07FB0656052351
:202A400086F85D301BE7A168CA0614D507FB065300229A65032283F85D2093F83D20002AFC
:202A60007FF473AF93F83C20002A7FF46EAF012283F83D2069E7A1680B060CD5E36843F05C
:202A80000203E360314607FB0656FFF729FB062386F85D304DE7A16849050FD5E36843F0DE
:202AA0000203E3603146FFF71BFB1023A3604FF48063A36007FB06560823C1E7A1688A0721
:202AC0007FF5DDAEE16807FB065021F00201E16090F85D10012917D190F83F3080F85C101F
:202AE000023B012B05D890F8513083F0010380F8513007FB0653C4F8088093F85C203146FA
:202B0000284606F033FBBAE6032902D180F85C80EFE70429FAD005293FF4D0AE06293FF422
:202B2000D6AE0829E5D1D2E638B590F8B832012B04460DD0012580F8B8520068FEF790FE2D
:202B400029462068FFF7B2F9002084F8B80238BD0220FCE790F8B832012B10B5044609D007
:202B6000012380F8B8320068FFF7CAFB002084F8B80210BD0220FCE70068FFF779B92823A9
:202B800003FB010191F85C007047282303FB0101C86C70470068FFF724BA0068FFF716BAF9
:202BA000F8B504460E4615461F4621688A6836EA020301D000202DE06B1CF7D001F09AFE95
:202BC000C01B8542F1D823685A6822F0E0025A606268B2F5827F0AD1A268B2F5004F02D070
:202BE000B2F5806F03D11A6822F040021A60A26AB2F5005F07D11A6822F400521A601A684B
:202C000042F400521A60012384F85130002384F850300320F8BD000073B51346124A134E5C
:202C200015684268B5FBF6F64FF47A757543B2F5827F044601950BD10A468021FFF7B0FFED
:202C400078B1636D43F020036365032002B070BD019B33B1019B013B019323689B681B06C0
:202C6000F6D40020F2E700BF3400002000366E0110B50446002836D00023836290F851308B
:202C800003F0FF021BB980F8502007F063FC2168A269022384F851300B6823F040030B6044
:202CA000D4E901300343E06803432069034360690343E0690343206A0343A06A034302F4CF
:202CC000007003430B60120C636A02F004021A434A60CB6923F40063CB6100200123606506
:202CE00084F8513010BD0120FCE72DE9F3411E4690F85030012B04460D46904600F09B80A6
:202D0000012380F8503001F0F5FD074694F85100C0B2012840F08D80002D5DD0B8F1000FA0
:202D20005AD0032384F851300020A3686065A063A4F83680A087E087C4E9100020682563A6
:202D4000B3F5004F08BF0368A4F8348004BF43F4804303600368E2685B065EBF036843F009
:202D600040030360B2F5006F63683ED113B1B8F1010F07D135F8023BC3602563E38E013BA6
:202D80009BB2E386E38E9BB2A3B93A4631462046FFF742FF002849D1A36833B90193236877
:202DA000DA6801929B680193019B606D003018BF012011E022689368980705D5236B33F86E
:202DC000021BD1602363D9E701F094FDC01BB042D8D3711CD6D00320012384F851300023CB
:202DE00084F8503002B0BDE8F08113B1B8F1010F08D12B780373236B01332363E38E013BAB
:202E00009BB2E386E38E9BB2002BBED023689A68920703D5226B12781A73ECE701F06AFDB8
:202E2000C01BB042EED3731CECD0D4E720236365B2E70220D0E70220D4E7000038B590F82F
:202E40005030012B044650D090F851500123EDB29D4280F8503046D100292DD0002A2BD037
:202E6000032380F8513000234365C0E91033C2868387C38783638368828602680163B3F591
:202E8000004F08BF1368806C04BF43F480431360174B0364174BC363174BC3640023036520
:202EA0000C32E38E01F086FB58B1636D43F010036365012384F85130002384F8503028465C
:202EC00038BD23681A6852065EBF1A6842F040021A605A6842F020025A605A6842F0020243
:202EE0005A600025E8E70225E6E70225E7E700BF012F00082F2F00080D2F0008704770472C
:202F000008B5806BFFF7FBFF08BD7047806B026808B5536823F003035360436D43F010030E
:202F20004365012380F85130FFF7EFFF08BD37B50546846B01F0DEFC2B681B68DB050246F4
:202F400026D42368596821F020015960596821F00201596020466421FFF75EFE18B1636DDC
:202F600043F020036365A36833B901932368DA6801929B680193019B0023E386012384F8E9
:202F80005130636D23B12046FFF7BFFF03B030BD2046FFF7B3FFF9E770470368DA6842F0CE
:202FA0000102DA609A6802F00702062A1EBF1A6842F001021A60002070477047704770479D
:202FC000704703681A69910710B504460ED5DA6892070BD56FF002021A619B6901229B0760
:202FE000027777D0FFF7EAFF0023237723681A69500710D5DA6851070DD56FF004021A61CF
:203000009B69022213F4407F2277204668D0FFF7D5FF0023237723681A6912070FD5DA68B7
:2030200010070CD56FF008021A61DB6904229907227720465AD0FFF7C1FF00232377236883
:203040001A69D20610D5DA68D0060DD56FF010021A61DB69082213F4407F227720464BD0FC
:20306000FFF7ACFF0023237723681A69D10708D5DA68D20705D56FF001021A61204606F001
:20308000BBFF23681A69100608D5DA68110605D56FF080021A61204600F0B7F823681A69D3
:2030A000520608D5DA68500605D56FF040021A612046FFF785FF23681A69910622D5DA688F
:2030C00092061FD56FF0200220461A61BDE8104000F09AB8FFF771FF2046FFF770FF83E730
:2030E000FFF76BFF2046FFF76AFF92E7FFF765FF2046FFF764FFA0E7FFF75FFF2046FFF7E2
:203100005EFFAFE710BD0000304A0368904212D0B0F1804F0FD0A2F57C4290420BD002F50E
:203120008062904207D002F58062904203D002F57842904219D14A6823F070031343234A1E
:20314000904229D0B0F1804F26D0A2F57C42904222D002F5806290421ED002F580629042E1
:203160001AD002F57842904216D0194A904213D002F5806290420FD002F5806290420BD0D4
:20318000A2F59832904207D002F58062904203D002F58062904203D1CA6823F440731343D6
:2031A0004A6923F08003134303608B68C3620B688362064B984203D003F58063984201D118
:2031C0000B69036301234361704700BF000001400040014010B50446A0B190F83D3003F0CD
:2031E000FF021BB980F83C20FFF7D6FE022384F83D302068211DFFF787FF012384F83D30FF
:20320000002010BD0120FCE7704770472DE9F341044618B9012002B0BDE8F0810368DD07B2
:2032200010D4236898075BD423681A0700F19D8023685B0700F1BB80A269002A40F01E817A
:203240000020E8E7A64B9A6802F00C02042A07D09A6802F00C02082A0AD15A68510207D587
:203260009F4B1B689A03DCD56368002BD9D1D1E76268B2F5803F11D11A6842F480321A6045
:2032800001F038FB964D06462B689B03C9D401F031FB801B6428F7D90320BCE7904DB2F5AF
:2032A000A02F2B6807D143F480232B602B6843F480332B60E4E723F480332B602B6823F49D
:2032C00080232B60002ADBD101F014FB06462B689F03A6D501F00EFB801B6428F7D9DBE73B
:2032E0007F4B9A6812F00C0F07D09A6802F00C02082A11D15B685E020ED4794B1A68950711
:2033000002D5E268012A85D11A68216922F0F80242EAC1021A6087E7E268724BB2B101228F
:203320001A6001F0E7FA6E4D06462B68980707D52B68226923F0F80343EAC2032B6073E729
:2033400001F0D8FA801B0228EFD9A5E71A6001F0D1FA634D06462B6899077FF565AF01F0B3
:20336000C9FA801B0228F6D996E762695E4B7AB101221A6001F0BEFA594D06466B6F9F0722
:203380003FF556AF01F0B6FA801B0228F6D983E71A6001F0AFFA524D06466B6F98077FF569
:2033A00047AF01F0A7FA801B0228F6D974E74C4B1A6C12F080521DD101921A6C42F080529A
:2033C0001A641B6C03F080530193019B0126474D2B68D90510D5A368414D012B1CD12B6F95
:2033E00043F001032B6701F085FA3D4F804641F2883537E00026EAE72B6843F480732B60FC
:2034000001F078FA07462B68DA05E4D401F072FAC01B0228F7D93FE7052B04D12B6F43F0A8
:2034200004032B67DBE72A6F22F001022A672A6F22F004022A67002BD5D101F05BFA41F266
:20344000883807462B6F98070FD501F053FAC01B4045F7D920E701F04DFAA0EB0800A84218
:203460003FF61AAF3B6F9B07F5D5002E3FF4E4AE1B4A136C23F080531364DDE6184DAB68C9
:2034800003F00C03082B3FF4C5AE194E0023022A336035D101F02EFA07462B68990129D472
:2034A000D4E907321343626A43EA8213E26A43EA0263A26A0A4C5208013A43EA02436B6020
:2034C0000123336001F016FA054623689A013FF5B7AE01F00FFA401B0228F6D9DCE600BF5B
:2034E0000038024000004742800E4742007000406000474201F0FEF9C01B0228CDD9CBE6D5
:2035000001F0F8F904462B689B017FF599AE01F0F1F9001B0228F6D9BEE600BF134908B52A
:203520008B6803F00C03042B1CD0082B1CD14A684B68496813F4800314BF0D480D48C1F38A
:20354000881118BF002302F03F02A1FB0001FDF77BFB064B5B68C3F3014301335B00B0FB56
:20356000F3F008BD0248FCE70248FAE700380240001BB7000024F4002DE9F0410D46044603
:2035800010B90120BDE8F081434B1A6802F00F028A4227D3226897072CD4D00740D43E4BB6
:2035A0001A6802F00F02AA4265D8226851076BD4130707D5394A2169936823F4604343EA57
:2035C000C1039360FFF7AAFF344B354A9B68C3F30313D35CD840334B1860002006F0A8FAD3
:2035E0000020CFE7CAB21A701B6803F00F038B42C7D1CFE7294B12F0040F1EBF996841F4B0
:20360000E0519960160742BF996841F4604199602249A0688B6823F0F00303438B60BCE752
:2036200062681E4B012A1CD11B6813F4003FA8D01A4EB36823F003031343B36001F05AF9B5
:2036400041F288380746B368626803F00C03B3EB820FA4D001F04EF9C01B4045F3D9032019
:2036600090E7911E01291B6802D813F0007FDEE713F0020FDBE7EAB21A701B6803F00F03D2
:20368000AB427FF47EAF90E70449E0688B6823F4E05303438B608BE7003C024000380240B9
:2036A000D0E9000834000020014B1868704700BF34000020044B054A9B68C3F38223D35C34
:2036C000034A1068D840704700380240E0E90008340000200F2303600B4B9A6802F00302D3
:2036E00042609A6802F0F00282609A6802F4E052C2609B68DB0803F4E0530361034B1B68CF
:2037000003F00F030B60704700380240003C024070B53F4C01F0EEF8236843F001030546F6
:2037200023602368990753D5236843F08003236001F0E0F80023A360354C054641F2883643
:20374000A36813F00C0F4AD101F0D4F8236823F4502323602E4C054623689A0345D401F0D9
:20376000C9F8236823F080732360294C054623689B0140D401F0BEF8236823F080632360CE
:20378000234C0546206810F000603AD1214B6360214BC4F88430E368204A23F4F853E36017
:2037A000E36823F40053E360E36843F41F03E360E36843F40013E360636F23F0010363679F
:2037C000174B1A6006F0B4F9003018BF012005E001F090F8401B0228A3D9032070BD01F0A2
:2037E00089F8401BB042ABD9F7E701F083F8401B6428B1D9F1E701F07DF8401B0228B6D96A
:20380000EBE701F077F8401B0228BBD9E5E700BF0038024010300004003000200024F400AC
:2038200034000020084910B50C6924F440740C610C6944F440740C610C6944F001040C6187
:203840000260436010BD00BF003C0240074B1A6922F440721A611A6942F400721A611A6918
:2038600042F001021A610160704700BF003C0240074B1A6922F440721A611A6942F4807280
:203880001A611A6942F001021A610180704700BF003C02401A4BDA68D20606D51949CA6916
:2038A00042F01002CA611022DA60DA68900606D51449CA6942F00802CA612022DA60104BAC
:2038C000DA68510606D50F49CA6942F00402CA614022DA60DA68120606D50A49CA6942F0FD
:2038E0000202CA618022DA60054AD3689B0706D50449CB6943F02003CB610223D3607047A4
:20390000003C0240E8020020064B1A69002ABFBF054A5A6002F188325A60BABF1869C00F6A
:2039200000207047003C024023016745034A136943F0004313610020704700BF003C02409B
:20394000F8B5124B124C00220546DA6100F0D2FF26460746E368DA030CD4E368DB0744BFA5
:203960000123E360F06810F0F20007D0FFF792FF012003E0691CEDD00DB90320F8BD00F064
:20398000B9FFC01BA842E5D9F7E700BFE8020020003C02402DE9F0411F4D98462B7E012B61
:2039A00007460E46144635D001234CF250302B76FFF7C6FFB0B9CFB9184B1A6922F440722A
:2039C0001A611A691A611A69E4B242F001021A6134704CF25030FFF7B3FF104A136923F0B2
:2039E0000103136100232B76BDE8F081012F04D1A1B23046FFF73CFFEBE7022F04D1214637
:203A00003046FFF723FFE4E7224643463046FFF709FFDEE70220E7E7E8020020003C0240AB
:203A2000074B1A6922F440721A611A6942F004021A611A6942EA002040F480301861704755
:203A4000003C024010B539B101291CD002290CBF4FF400714FF440710C4B1C6924F44074DD
:203A60001C611C6921431961196921F0F80119611A6942EAC00242F002021A611A6942F485
:203A800080321A6110BD4FF48071E5E7003C0240144B1A6891050FD51A6822F400721A60CF
:203AA0001A6842F400621A601A6822F400621A601A6842F400721A600A4B1A6852050FD548
:203AC0001A6822F480621A601A6842F480521A601A6822F480521A601A6842F480621A60F6
:203AE000704700BF003C02402DE9F843234E337E012B044688463FD001234CF25030337681
:203B0000FFF71EFF0546A8B94FF0FF33C8F800302368012B13D1207CFFF782FF4CF2503019
:203B2000FFF70EFF164A136923F0040305461361FFF7AEFF002333762846BDE8F883A768C1
:203B4000DFF83C90D4E902231344BB42F0D9217C3846FFF777FF4CF25030FFF7F1FED9F8C8
:203B6000103023F0FA03C9F8103018B1C8F800700546DDE70137E5E70225DDE7E8020020F3
:203B8000003C02402DE9F04F85B00B68DFF8AC81684ADFF8AC91019300234FF0010C019C40
:203BA0000CFA03FC04EA0C06B44540F0AE804C6824F01007022F16D14FEAD30A00EB8A0A1D
:203BC00003F0070BDAF820504FEA8B0B4FF00F0E0EFA0BFE25EA0E0E0D6905FA0BF545EA93
:203BE0000E05CAF820504FEA430A0325D0F800B005FA0AF5ED4304F0030E05EA0B0B0EFA1A
:203C00000AFE013F4EEA0B0E012FC0F800E011D8876807EA050BCF6807FA0AFE4EEA0B07E0
:203C20008760476827EA0C0CC4F300179F4047EA0C074760C7683D408F6807FA0AF73D4308
:203C4000C560E50061D54FF0000BCDF80CB0D8F84470394D47F48047C8F84470D8F8447055
:203C600007F480470397039F23F0030707F1804707F59C3703F0030ED7F808A04FEA8E0E4B
:203C80004FF00F0C0CFA0EFCA8422AEA0C0C43D005F58065A84241D005F58065A8423FD0DF
:203CA00005F58065A8423DD005F58065A8423BD048453BD005F50065A84239D005F5806591
:203CC000A8420CBF0725082505FA0EF545EA0C05BD601568F74314F4803F0CBF3D40354339
:203CE0001560556814F4003F0CBF3D4035435560956814F4801F0CBF3D4035439560D56840
:203D0000A40254BF3D403543D5600133102B7FF444AF05B0BDE8F08F5D46D5E70125D3E7D3
:203D20000225D1E70325CFE70425CDE70525CBE70625C9E7003C01400000024000380240F9
:203D4000001402400369194214BF0120002070470AB1816170470904FBE70268536913F40B
:203D600080630DD06FF4806353610423036420220023036380F83C3080F83D20012070479F
:203D8000184670472DE9F04104460F46164698462568686927EA000080B298B16B695A05D1
:203DA00012D52B6843F400732B606FF480636B610423236420220023236384F83C3084F845
:203DC0003D200120BDE8F081731CE2D046B900232022236384F83C3084F83D200320F1E768
:203DE00000F088FDA0EB0800B042D1D9EFE72DE9F843089C05460E4690461F464FEA1149E7
:203E00002B68B9F1010F0CBF5869986926EA000080B2B0FA80F04009804501D000200CE081
:203E20007A1CEED05FB9002320222B6385F83C3085F83D20032085F83E30BDE8F88300F042
:203E400059FD001BB842DBD9EDE770B504460D46164623685B691B0601D5002012E0204693
:203E6000FFF77BFFA8B96A1CF3D065B9236C43F02003236420220023236384F83C3084F84F
:203E80003D20032070BD00F035FD801BA842E0D9ECE70120F6E770B504460D46164620689E
:203EA000436913F0400301D000200DE04269D2060BD56FF0100242612022236484F83C300A
:203EC0002363012084F83D2070BD5DB9236C43F020032364202384F83D30002384F83C307C
:203EE0000320F1E700F006FD801BA842D7D9EDE770B504460D46164623685B695B0701D526
:203F0000002012E02046FFF728FFA8B96A1CF3D065B9236C43F020032364202200232363ED
:203F200084F83C3084F83D20032070BD00F0E2FC801BA842E0D9ECE70120F6E770B5044624
:203F4000002862D090F83D3003F0FF021BB980F83C2006F06BFB22682D4E2E4D242384F8D7
:203F60003D30136823F001031360FFF7A3FB63682268B0FBF5F5B34284BF4FF49671694323
:203F8000556091BF691C4FF47A75B1FBF5F10131B342116221D85B00B0FBF3F040F6FC73B2
:203FA000184208BF0420D4E907310B43D0611360D4E903130B439360D4E905310B43D3604D
:203FC000136843F00103136000202023206484F83D30206384F83E0070BDA16849B903EB89
:203FE0004303B0FBF3F0C0F30B0363B140F40040D9E719214B43B0FBF3F0C0F30B0313B109
:020000040800F2
:2040000040F44040CFE70120CDE70120E4E700BFA086010040420F002DE9FF4104461F46F9
:204020000D46904600F066FC94F83D30202B064604D00225284604B0BDE8F0810090192376
:2040400001225C492046FFF7D2FE0028F1D194F83C30012BEDD0012384F83C3023681A6888
:20406000D2075EBF1A6842F001021A601A6822F400621A60212284F83D20102284F83E207D
:2040800000222264A2F580326785E262628D2285E26AC4F82480042A04D0012A02D012F5B7
:2040A000803F04D11A6842F480721A6002E0226B122AF7D000960A9B00224FF001112046C2
:2040C000FFF795FE002833D123692268B3F5804F20D105F0FE05156133460A9A364920463D
:2040E000FFF750FE054610BB236803905A6903929B690393039B238D3BBB21680A6842F4E1
:2041000000720A60202284F83D2084F83C3084F83E308FE7EB1103F0060343F0F0031361CE
:2041200026490A9A33462046FFF72CFE48B1236C236C042B4FF0000384F83C300ED10125F8
:2041400078E72368EDB21D61C6E732460A992046FFF77BFE20B1236C042B25D0032569E7BF
:20416000616A2068228D4B1C63620B780361638D013B9BB263854769531E9BB27F0723852D
:204180000AD54BB18B1C63624B780361638D013B9BB2023A6385228532460A992046FFF7F6
:2041A000A7FE0028A7D0D6E72268136843F400731360C4E702001000020001000800010013
:2041C0002DE9F043044689B098460D469146109F00F090FB94F83D30202B064604D0022556
:2041E000284609B0BDE8F083009019230122A3492046FFF7FCFD0028F1D194F83C30012B42
:20420000EDD0012384F83C3023681A68D1075EBF1A6842F001021A601A6822F400621A602E
:20422000222284F83D20102284F83E2000222264A2F58032A4F82A80E262628D2285E26AF8
:204240001968C4F8249041F48061042A196004D0012A02D012F5803F04D11A6842F480729A
:204260001A6002E0226B112AF7D000963B4600224FF001112046FFF7BAFD002830D1226902
:204280002368B2F5804F1CD145F00105EDB21D6133463A467A492046FFF774FD0546F0B95B
:2042A000228D2368002A49D0012A5DD11A6822F480621A6004905A6904929A690492049A10
:2042C00042E04FEAE51808F0060848F0F0021A616C4933463A462046FFF754FD48B1236CF8
:2042E000236C042B4FF0000384F83C3064D1012576E723686249EDB21D613A46334620466C
:20430000FFF740FD02460028E9D12368079059690791996907910799196841F4807119606A
:20432000204600963B464FF00111FFF760FD0028D6D1226848F0F1031361A9E703905A697D
:2043400003929A690392039A1A6842F400721A60DFF83481238D13BB202284F83D2084F84E
:204360003C3084F83E303BE7022A1A680DD122F480621A601A6842F400621A6005905A69DB
:2043800005929B690593059BE2E742F480621A6006905A6906929B690693069BD8E7032BD3
:2043A00052D8012B0AD1324639462046FFF773FD08B3236C202B9AD1032511E7022B009626
:2043C0003B464FF000024146204622D1FFF70FFD0028F1D123681A6842F400721A601A699D
:2043E000636A591C61621A70238D013B2385638D013B9BB2638523681A69636A591C616226
:204400001A70238D013B2385638D013B9BB26385A0E7FFF7ECFC02460028CDD1236819689E
:2044200021F4806119601969636A581C60621970238D0096013B2385638D013B9BB2638574
:2044400041463B462046C1E7324639462046FFF722FD0028ADD123681A69636A591C61621B
:204460001A70238D013B2385638D013B9BB2638523685A6952077FF56DAFBDE702001000D0
:20448000020001000800010004000100036810B5DAB2103A074C23F47F7323F003035F2A07
:2044A00088BF04331821B2FBF1F1615CC1658365184610BD7FE7000870B5044600F01AFADF
:2044C0000546002C71D0002384F834302268022384F83530136823F00103136021680B6890
:2044E000DA073BD40B68324DA0691D40D4E901231343E26813432269134362691343E26950
:2045000003431343226A13432B43656A042D02BFD4E90B26324313430B604A69042D22F0D4
:20452000070242EA05020BD1A36AE56A1A433DB1F8B9012B2ED00BB1022B01D1EB012CD43A
:204540004A612046FFF7A2FFE26D3F239340836000200123606584F8353009E000F0CAF9C6
:20456000401B0528BAD920236365032084F8350070BDB0F5005F14D1032BE1D801A050F85B
:2045800023F000BF9B4500083D4500089B45000895450008B5F1C07FD2D140236365012039
:2045A000E4E7022BF9D9032BC7E70120E0E700BF3F8010F070B590F83440866D012C35D0A9
:2045C000012480F8344090F83540012C4FF000054FF0020428D180F835400468456525688E
:2045E00025F48025256063608368402B0EBFA260A160E260C26D08BFE1603F239340B360CE
:20460000236843F016032360636943F080036361036C1BB1236843F008032360236843F0B5
:2046200001032360002070BD80F834500220FAE7F7B5002301935C4B856D1F68C36D2E685E
:2046400008229A40324204460CD001680868400708D5086820F004000860AA60626D42F0C8
:204660000102626501229A40324208D021684969090641BFAA60626D42F0020262650422E1
:204680009A40324208D021680968880741BFAA60626D42F00402626510229A40324210D033
:2046A0002368196809070CD5AA601A68500337D51B68190301D4236C00E0A36C0BB12046FE
:2046C0009847E16D20228A4032423AD023681868C60636D5AA6094F83520052A1A6827D1AD
:2046E00022F016021A605A6922F080025A61226C0AB9A26C1AB11A6822F008021A603F2360
:204700008B40AB60002384F83430012384F83530236D002B45D0204603B0BDE8F04018479E
:204720001A68D2055EBF1A6822F008021A60C2E7500327D51B68190331D4636C0BB120465E
:204740009847636D6BB3636DDA0719D50523226884F83530136823F0010313604FF41653A9
:20476000B7FBF3F7019B0133BB42019302D81368DB07F7D4002384F83430012384F8353032
:20478000E36CC6E71A6812F4807208D1196821F010011960012384F8342084F83530E36B8B
:2047A000CCE703B0F0BD00BF34000020074AD36823F4E06300021B0400F4E0601B0C184316
:2047C00040F0BF6040F40030D060704700ED00E0174B70B5DC68C4F30224C4F10705042DD8
:2047E00004F1040328BF04254FF0FF36062B06FA05F58CBF033C002421EA0501A14006FA6E
:2048000004F422EA0403002843EA0103A8BF00F160404FEA0313BCBF00F00F00054ADBB297
:20482000AABF00F56140135480F8003370BD00BF00ED00E014ED00E0002808DB4209012353
:2048400000F01F0003FA00F0014B43F82200704700E100E0BFF34F8F0549064BCA6802F4E4
:20486000E0621343CB60BFF34F8F00BFFDE700BF00ED00E00400FA057047000010B5094BE3
:204880004FF0FF3200241A621C625A625C621A611C615A615C619A619C61FFF7EDFF204660
:2048A00010BD00BF0038024008B50B4B1A6842F400721A601A6842F480621A601A6842F46F
:2048C00080721A600320FFF771FF002005F030F905F024FE002008BD003C0240034A044B8F
:2048E00011681B780B441360704700BF0803002010000020014B1868704700BF08030020AC
:2049000038B50446FFF7F6FF631C1CBF054B1B78054618BFE418FFF7EDFF401BA042FAD32E
:2049200038BD00BF10000020034B1A1803EB8003107A5B685B681847A8020020064B1A5CA2
:2049400042B901221A541A1803EB8003107A5B681B68184700207047A802002030B4054C23
:20496000251804EB800460688468287AA44630BC604700BFA802002030B4054C251804EBCA
:2049800080046068C468287AA44630BC604700BFA8020020054B10B41C1803EB8003207AA4
:2049A0005B685DF8044B1B69184700BFA802002042884378007843EA022340EA03207047D1
:2049C0000B0A017043700B0C090E8370C1707047024400F8011B9042FBD170471B4A136806
:2049E00030B563B104689C4207D1546883689C4203D1946843699C4220D0002400E00124A4
:204A00001369CBB10568AB4207D1556983689D4203D1956943699D4215D06CB902290CBF87
:204A20000020122030BD02EB03129389B3F5807F14BF00201020F5E70020F3E7002300292D
:204A4000F1D01020EEE70123F9E700BF840200200138012814D80B49020188188389B3F52E
:204A6000807F04D100238381002088507047002BFAD0013B9BB28381002BF5D00020704743
:204A8000022070478402002043690239023B8B4283BF4389806A01FB030000207047C36AAB
:204AA00002680433490A5289B1FBF2F1186830B1814202D3091A0833F8E75868084470479F
:204AC00003685A1C02601A7890B2A0F16103192B02D8203880B270477F2882BF024B9B1883
:204AE00013F8800C704700BF87E700087FB5044601911D46114621B923785BB955B10120B9
:204B000006E001A8FFF7DCFF01390028F3D1002004B070BD019B02940393029B1B783F2BAC
:204B200001D02A2B1DD100231A460299481C02900E7849783F2E0CBF013201233F29F4D04B
:204B40002A29F2D00399FFF7D1FF0028D7D1039B197801A8FFF7B4FF002DD8D00029D9D1E5
:204B6000D5E702A8FFF7ACFF064603A8FFF7A8FF86420146EDD1002ECFD1C0E7026810B529
:204B800052B111460B4611F8014B202C0CD93A2CF8D1511C8B4202D04FF0FF3005E01278CC
:204BA000302AF9D101330360002010BD38B50D46044618B9092000232B6038BD0368002B90
:204BC000F8D01A78002AF5D08188DA889142F1D15878FFF7A9FE10F00100EBD12368EBE705
:204BE00001380A4411F8013B00F8013F9142F9D1704700001E4AF0B5136805689D4207D1B1
:204C000056688468A64203D146699468A6421AD01469AC4207D157698668B74203D19769F3
:204C20004669B74218D00BB1A4B901231E019419955185684069A06000206560A08169B13F
:204C40004FF480710FE0002341B102EB031189890029F5D000200AE00123F5E702EB031110
:204C60008989013189B202EB0312581C9181F0BD84020020CA7E8B7E032843EA022301BF4C
:204C8000487D0A7D42EA002243EA024318467047C2F307238A76CB760378032B01BF120C4C
:204CA0000A75120A4A757047F8B5046A0023651E18462E2615F8012F202A00F101000AD01D
:204CC000052A08BFE522092802BFCF1801337E72CF1801337A720B28ECD10B4400225A72A6
:204CE000E37A0B7204F11C00FFF762FE086004F11600FFF75DFEC880000C8880F8BD2DE988
:204D0000F041C56A00F13008044601232A4641464078FFF731FE0646A8B9236AA269E07033
:204D2000EB1A934202D2A778012F02D83046BDE8F081A36960781D442A4601234146FFF7BA
:204D40001BFE013FF0E70126F0E7C3780BB1FFF7D6BF1846704738B5C36A8B4205460C460A
:204D600015D0FFF7F2FF034678B90123224605F130016878FFF7F2FD002818BF4FF0FF3404
:204D80000346EC620CBF03460123184638BD0023FBE70000002310B5C3704FF0FF33C3623B
:204DA0000446FFF7D8FF014630BB94F82F2294F82E3243EA02234AF6552293421ED194F888
:204DC0003030E92B05D0236B0E4A03F0FF13934216D104F16600FFF7EBFD0B4B20F07F4085
:204DE000984207D004F18200FFF7E2FD074B984218BF0221084610BD0421FBE70321F9E76A
:204E00000221F7E7EB00900046415400464154332DE9FF4700230B600D461646FFF7AEFEF2
:204E2000071EC0F24381A54B53F82740002C00F03F812C60237806F0FE067BB16078FFF73E
:204E400073FDC2070AD4002E00F0348110F0040500D00A25284604B0BDE8F0870023F8B255
:204E600023706070FFF76AFD10F0010540F024810EB14307EDD400212046FFF78BFF02289C
:204E800040F0FA80E84604F5FB7104F23627464611F8040C10B10846FFF78AFD10318F423F
:204EA00046F8040BF4D1002658F8047B002F00F0DA8039462046FFF76DFF012800F2D480BC
:204EC00094F83C2094F83B3043EA0223B3F5007F40F0D68094F8473094F8468058EA032832
:204EE00004D104F15400FFF763FD804694F84010C4F818804B1E012BA17000F2C18094F8E3
:204F00003D60B3B26381002B00F0BA80731E334240F0B68094F8429094F8413043EA092336
:204F20000FFA83F91FFA89FA1AF00F0FA4F808A040F0A68094F8443094F8430050EA032062
:204F400003D104F15000FFF733FD94F83FE094F83E3053EA0E2E00F0938008FB01FC0EEBF8
:204F60001A1262449042C0F08B80801AB042B0FBF6F1C0F085804FF6F573994200F2848081
:204F800040F6F576B1428CBF0226012602310EEB07033A44032E6161E7612362A26275D125
:204FA00094F85B2094F85A3043EA022349EA03031BB2002B64D104F15C00FFF7F9FC60621E
:204FC000890001F2FF11B8EB512F59D34FF0FF33C4E90333032E4FF0800323712FD194F88F
:204FE000612094F8603043EA0223012B27D1791C2046FFF7B0FE10BB94F82F2294F82E326B
:20500000207143EA02234AF65522934217D104F13000FFF7CDFC2A4B984210D104F50570B7
:20502000FFF7C6FC274B984209D104F50670FFF7BFFC206104F50770FFF7BAFCE060224A29
:205040002670138801339BB21380E3801F4B1A68944204BF00221A601A6994427FF4FAAE13
:2050600000221A61F6E603200136042E7FF41CAF042805D10125EDE60428FBD0012801D9F8
:205080000D25E7E600271BE703267FE7BAF1000FF6D06344022E63624FEA41031BBF5B1873
:2050A00001F00101194601EB53018AE70B25D1E60C25CFE63546CDE60325CBE68002002077
:2050C0005252614172724161A40200208402002001292DE9F04705460C46174672D9436930
:2050E0008B426FD90378022B3FD0032B50D0012B68D101EB5108016A01EB5821FFF72BFEFD
:20510000064638BB05F1300908F1010AC8F3080814F001041FBF19F8083003F00F023B01E2
:2051200003F0F00314BF1343FBB209F80830296A0123EB7001EB5A212846FFF70CFE064647
:2051400040B9CAF3080A44B1C7F3071709F80A700123EB703046BDE8F08719F80A30C7F329
:20516000032723F00F031F43F0E7016A01EB1421FFF7F1FD06460028ECD1640005F1300379
:2051800004F4FF741A191F55C7F307275770DFE7016A01EBD411FFF7DEFD06460028D9D15D
:2051A000A40005F1300304F4FE741C442046FFF7FFFB27F0704700F0704139432046FFF7BB
:2051C000FFFBC5E70226C5E70129F8B505460C4652D9436999424FD20378022B29D0032B3F
:2051E00038D0012B48D101EB5106016A01EB5621FFF7B1FD10B14FF0FF30F8BD771C296AA3
:20520000C6F308062E4401EB5721284696F83060FFF7A1FD0028EED1C7F308073D44E307B6
:2052200095F8300046EA00204CBF0009C0F30B00E3E7016A01EB1421FFF78DFD0028DAD1E6
:205240006400303504F4FF742B19285D5B7840EA0320D2E7016A01EBD411FFF77CFD0028A5
:20526000C9D1A40005F1300004F4FE742044FFF79FFB20F07040C0E70120BEE72DE9F041F8
:20528000804605680F4671B9EE68EEB16B69B34298BF012634466B690134A34217D8012E9A
:2052A00014D8002406E02846FFF78EFF0128044603D801242046BDE8F081431C30D06B69E5
:2052C0008342F7D83E46E5E70126E3E702242146D8F80000FFF778FF30B10128E9D001303B
:2052E0001ED0B442D7D1DCE74FF0FF3221462846FFF7EEFE90B957B9D5E90432023A9342DA
:20530000EC6010D92B7943F001032B71D2E7224639462846FFF7DCFE0028EDD00128C8D15C
:205320004FF0FF34C6E7013B2B61EBE7F8B50D46012D0746114604682BD96369AB4228D9B8
:205340002AB14FF0FF322046FFF7C2FE30B929463868FFF739FF064608B90020F8BD0128B5
:2053600017D0431C17D0002229462046FFF7B0FE0028F3D1D4E90432911E8B4205D20133FF
:205380002361237943F001032371B2423546DED8E3E70220E2E70120E0E7F8B50446FFF773
:2053A000D4FC0546002842D12378032B37D12779012F34D104F1300601464FF40072304654
:2053C000FFF706FB552384F82E32AA2384F82F3252234122722184F8303084F83130612330
:2053E00084F8323084F8332084F8162284F8173284F8141284F8151204F506702169FFF753
:20540000DFFAE16804F50770FFF7DAFAE26960780132E2623B463146FFF7AEFA2571002248
:2054200011466078FFF7B6FA003018BF0120F8BD826838B500230546046843619AB9237877
:20544000022B01D9636A6BB923890BB9022038BD636AEB61EB69AA61002BF7D030342C6271
:205460000020F4E71A46638963B911462868FFF7ABFE431C02460BD00128E7D96369984232
:20548000F3D3E3E711462046FFF7FEFAE861E1E70120DCE743692DE9F04703F12009C3699A
:2054A00005468A4693B1B9F5001F0FD2C9F308080468B8F1000F4DD181690133C36139B99D
:2054C0002389B3EB591F45D80023EB6104200BE06789013F17EA59273CD12046FFF774FEE3
:2054E0000128064602D80220BDE8F087421C01D10120F9E76369834226D8BAF1000FE3D0F2
:20550000A9692846FFF7BAFE0646002835D00128E9D0431CECD02046FFF717FC0146002809
:20552000E6D14FF4007204F13000FFF751FA31462046FFF7A9FA4FF0010AE06263899F42CA
:205540000FD3E36ADF1BE762AE6131462046FFF79BFAE86130344444C5F814902C6200201E
:20556000C2E784F803A02046FFF7C9FB0028BFD1E36A01330137E362E0E70720B4E7000004
:205580002DE9F843076804460D4611F8013B2F2BFAD05C2BF8D00023A3602B781F2B58D9B2
:2055A000DFF8488104F124060B2230462021FFF70FFAC5F1020905F1FF3C0022082009EB19
:2055C0000C011CF8013F202B08D92F2B01D05C2B49D1685C2F2844D05C2842D00D44002A32
:2055E00052D094F82420D4F80090E52A04BF052284F82420212B34BF0423002384F82F3040
:205600002046FFF715FF00284BD1E1694846FFF7A2FB002845D1236A1A78002A4CD0DA7A74
:2056200002F03F02A271D87A10F008000CD103F10B0C314613F8012B11F801EB9C45A2EBD1
:205640000E022CD0002AF5D000212046FFF722FFD9E7802384F82F302046BDE8F843FFF737
:20566000E7BE0131B5E72E2B3AD090420CD9190648BF803BDFF878E048BF18F803301EF82D
:20568000011B19B18B42FAD1062013E0A3F1610119299CBF203BDBB2B35401328FE7002A1E
:2056A000D2D194F82F3048B1042803D113F0040F08BF0520BDE8F8830420F2E75A07F9D416
:2056C000A379DB060AD563693878C3F3080307F130011944FFF7CEFAA06063E70520E9E72E
:2056E0000B28D1D008220B2069E700BF87E7000807E8000838B5044605680420E16909B931
:20570000A8B11CE02846FFF726FBC0B9236A1A78C2B1DB7AE52A03F03F03A37109D02E2AC6
:2057200007D00F2B05D023F02003082B01D0002038BD00212046FFF7ADFE0028DED0002313
:20574000E361F5E70420FAE770B505460668FFF76FFE044628BBE9693046FFF7FCFA0446B8
:20576000F8B92B6A1B78E52B14D1E9693046FFF7F2FA044660B901462022286AFFF728F91C
:205780000B2205F12401286AFFF72AFA0123F370204670BD002BE8D001212846FFF77AFE1A
:2057A000D7E7042C08BF0724F2E700007FB5CDE9001003A816460391FFF7E0F9051E1FDBAF
:2057C000114951F825405CB1104B1A68944204BF00221A601A690020944208BF1861207059
:2057E000019808B10023037041F8250030B1012E08D1002201A96846FFF70AFB04B070BD24
:205800000B20FBE70020F9E780020020840200202DE9F04391B0174601910446002800F058
:20582000B08002F03F052A4602A901A8FFF7F0FA064618BB029B0199039303A8FFF7A0FE33
:2058400058B99DF93B30002B1FDB15F03E0F14BF0121002103A8FFF7C1F817F01C0F70D0DD
:20586000A8B104280AD16E4B1A681AB11B69002B40F0818003A8FFF767FF90B100232360F4
:205880000646304611B0BDE8F0830620E5E79DF8123013F0110F5ED17B076ED43B073BD53C
:2058A00001E045F0080505F065FA024601460B980E30FFF785F80B9811461630FFF780F8E0
:2058C0000B9BDDF808802022DA72DDF82C9098F800004946FFF7CEF9002207464046FFF7DF
:2058E000D7F90B9B00221A775A779A77DA77029B0121D97087B1394603A8D3F82C80FFF775
:2059000015FD0028BAD141460298FFF724FA029B013FDF600028B1D1029B2F07DB6A6362EA
:2059200048BF45F0400515F0FE0F0B9BA36214BF0121002103A8FFF75DF9206118BB0220A6
:205940009CE700289AD19DF81230D80617D4BA07E2D5DB07E0D5072090E72068FFF734FC36
:2059600001280146A5EB080503D9013036D1012037E0022035E0122080E708207EE704204D
:205980007CE709267DE7029FDDF82C8038784146FFF770F9A06008F11C00FFF709F8FB88CA
:2059A0002760002104F13007E0604FF40072E162A380257561752162A1613846FFF708F84F
:2059C000AA067FF55EAFE568002D3FF45AAF029BA168B3F80A80A5614FEA4828A845BCD3DA
:2059E0000020E16100287FF449AFC5F30803002B3FF447AFDDF808804046FFF745F800285D
:205A00009DD000EB552222620123394698F80100FEF7A4FF00283FF434AF01202EE700BF34
:205A2000840200202DE9F04F9B4687B000238A46CBF8003005A904461546FFF7B7F8064629
:205A400028BB667D1EBB237D13F00103039300F09D80E368A769DF1BAF4204F1300328BF08
:205A60002F4601939FB1A169C1F30803002B7ED1059BB3F80A9009F1FF3919EA5123029367
:205A80001BD141B9A068012810D802266675304607B0BDE8F08FE36A1BB12046FEF7FFFF41
:205AA000F1E7E1692068FFF78FFBECE7431C03D101236375039EEAE7E061DDF81490E16944
:205AC0004846FEF7E1FF0028DFD0029BB7F5007F03EB00082DD3029AB9F80A3099F80100B5
:205AE0007D0A2A449A4284BF029A9D1A2B4642465146FEF733FF0028DAD194F91430002BB9
:205B00000BDA206AA0EB0800A84206D24FF4007201990AEB4020FFF763F86D02A3692B44E2
:205B2000A361DBF800302B44AA44CBF800307F1B98E7226A424518D094F91430002B0BDA19
:205B40000123019999F80100FEF716FF0028AFD1237D03F07F032375059801994078012383
:205B60004246FEF7FBFE0028A2D1C4F82080A169019BC1F30801C1F50075BD4228BF3D46C1
:205B80002A4619445046FFF72BF8C7E707267EE7F7B501A90446FFF709F8054600283BD133
:205BA000237D13F0400537D01B060CD50198226A4078012304F13001FEF7DEFE78BB237D29
:205BC00003F07F03237505F0D5F8616A07460198FFF7C1F80546F8B9A66AF37A43F02003C7
:205BE000F372A26820683146FFF752F8E16806F11C00FEF7E5FE394606F11600FEF7E0FE64
:205C00000198B5740123F574C370FFF7C6FB237D23F0400305462375284603B0F0BD01257E
:205C2000FAE713B50446FFF7B3FF48B901A92046FEF7BCFF20B92069FEF70AFF00B920606F
:205C400002B010BD2DE9F74F0D4601A90446FEF7ADFF0646E0B9667DD6B9E36A002B79D069
:205C60006A1C39D11D46D4F8088055F804BB0227B8F1000F28D0C1464FF0000A4946206891
:205C8000FFF7A2FA01280AF1010A07D802266675304603B0BDE8F08F8046ECE7431C01D14A
:205CA0000126F4E709F1010383428146E6D00237BB4521BF2B4643F808ABC5F804801D4686
:205CC000019B5B698342E7D8E36A5F451F6000F2C18000232B60DBE7E068854228BF05468C
:205CE000A561002DD4D005F1FF3841462046FEF7D6FE019FE06101463846FEF7C5FE002864
:205D0000C4D0C5F30805002DC2D07D89226A013D05EA58250544AA42BAD094F91430002B74
:205D200004F130060ADA787801233146FEF724FE0028B5D1237D03F07F0323750198314647
:205D400001232A464078FEF709FE06460028A7D125629DE7E368AB4204D2227D12F0020F44
:205D600008BF1D460022A369A261EDB90025E268A369934282BF227DE36042F04002C3F385
:205D8000080388BF2275002B82D0226AAA423FF47FAF94F91430002B04F13006CEDA01985C
:205DA000012331464078C1E7019A57897F020BB3013B6A1EB3FBF7F1B2FBF7F28A4219D386
:205DC0007A421340E169A361ED1A0029CED0BD42A3691ED8A3692B44A361C5F30803002B2A
:205DE000C4D00198FEF750FE00283FF44FAF00EB5525BCE7A16851B92046FFF73FFA012801
:205E000001463FF443AF01303FF44AAFA160E161DBE73B44A361237D9A07A5EB070806D576
:205E20002046FFF72BFA054628B90146D2E72068FFF7CAF905466B1C3FF432AF012D7FF6EB
:205E400025AF019B5B69AB427FF620AFE56129464546BCE711261BE730B585B004460191CB
:205E6000002839D0002203A901A8FEF7D1FF054678B9039B236001992046FFF781FB05465B
:205E800028BB94F92F30002B0CDBA379DB0603D405250023236015E0039B216A1878FEF7DA
:205EA000E9FEA060039BDB88A3802046FFF7C0FA054660B9A36843B101462046FEF79AFE24
:205EC000206138B1284605B030BD2061FAE7042DDED0DEE71225DCE70925F3E737B50D4601
:205EE00001A90446FEF762FE18B920461DB9FFF79FFA03B030BDFFF7FDFB10F0FB03F8D168
:205F00006B72E3691BB129462046FEF7CDFE00212046FFF7BFFA042808BF0020E9E7F8B531
:205F200006460D4601F1090729463046FFF7D6FF044650B94DB16B7A3BB1034602463946DE
:205F4000306BFEF7D3FD0028EED02046F8BD000030B50F4B5C7A054604F0FF00ACB95C7A52
:205F600018555C7A03EB840465605C7A1C4422725A7AD2B2541CE4B25C723A2330324B7033
:205F80002F230A708B70C87030BD0120FCE700BFA80200200022FFF7DBBF00000A4A537AB5
:205FA0007BB10378303BDBB202EB8301486840B1134400201872537A4860013BDBB253722C
:205FC00070470120704700BFA80200200021FFF7E5BF6C22002106F017B918B16C22002101
:205FE00006F012B9704700000023C0E90033C1B9194A1A4BDFF88CC0C0E90223184B194A31
:020000040800F2
:20600000C0E904C3184BC0E90623184B036203F17453A3F52303A3F6924343628166002080
:206020007047134B134ADFF860C0C0E9022303F1794303F5740303F5016303610E4BC0E948
:2060400005C303F1D14303F5C01303F51E63C3610A4B03620A4BE0E767E6096A85AE67BB1D
:206060003AF54FA57F520E518C68059BABD9831F07D57C36D89E05C1310BC0FFA78FF964BB
:20608000A44FFABE72F36E3C39590EF72DE9F04FD1B000F10803059308AB019300F12803E2
:2060A0000693019A059B53F8040B42F8040B06989842F8D10DF1400901F140004A464B785C
:2060C0000C781B0443EA0463CC7823438C78043143EA0423884242F8043BF0D1019B019A17
:2060E000019901989E4CD3F81C80D2F818E04F69D0F810B0DB689268496800680294CA461E
:20610000A446DCF80040DAF800504FEAFB2686EABB162C4486EA7B6626448EEA070404EA28
:206120000B0484EA0E04264440EA01054FEA7034B04484EAB00400EA0106154084EAB0548B
:20614000354325444344DCF80440A844DAF804508BEA07062C44A6441E404FEAF3247E4065
:2061600084EAB314B64484EA7364744448EA00054FEA783E08EA00068EEAB80E0D403543D2
:206180008EEAB85EAE44A6442244DCF80850DAF8084025442F4483EA0B05154085EA0B06BB
:2061A000BD194FEAF22787EAB21787EA72672F4448EA0E044FEA7E3508EA0E0685EABE0558
:2061C0000440344385EABE55DAF80C602544DCF80C4034443944A34483EA02040C403D449F
:2061E00084EA03070BEB07044FEAF12B8BEAB11B8BEA716BA3444EEA05064FEA75340EEA3B
:20620000050784EAB50406EA08063E4384EAB554DCF810703444DAF810605844374482EAC4
:2062200001063B4406404FEAF027564087EAB0175C44334487EA70671F4445EA04064FEA40
:20624000743305EA040B83EAB40306EA0E0646EA0B0683EAB45333443B44B844DCF8146082
:20626000DAF8147081EA000B3E4432440BEA080B4FEAF8268BEA010B86EAB8165A4486EA2E
:206280007866164444EA03074FEA733204EA030B2F4082EAB30247EA0B0782EAB3523A44F2
:2062A0003244B644DAF81870DCF8186080EA080B3E4431440BEA0E0B4FEAFE268BEA000B69
:2062C00086EABE16594486EA7E660E44AF194FEA723143EA0205254003EA020B81EAB201E2
:2062E00045EA0B0581EAB25129443144DCF81C50DAF81C603544054488EA0E00384080EA5D
:20630000080B05EB0B004FEAF72585EAB71585EA7765054404EB050B4FEA713042EA010441
:2063200080EAB1001C4002EA0106344380EAB15020440C4C0CF1200C644528440AF1200AF2
:206340007FF4DFAECDE90D7ECDE90801CDE90A2309F1C004CDF83C80CDF830B0079403E0F8
:2063600018E8000858E80008D9F83840D9F80460D9F800504FEAF44C8CEA744C8CEA942C49
:20638000D9F824404FEAB64A2C448AEAF61A8AEAD60AA4444FEAFB250CEB0A0485EABB15C2
:2063A000049485EA7B648EEA070505EA0B0585EA0E052544029C246C2C44049DC9F84050F9
:2063C0002C44A04403EB080C40EA01044FEA703300EA010583EAB003144083EAB0532C4319
:2063E0001C44D9F83C304FEAF34585EA734585EA9325D9F82830A0443344D9F808402B4435
:20640000029D4FEAB4466D6C86EAF41686EAD4063344AE448BEA07060EEB030506EA0C061F
:206420004FEAFC2E7E408EEABC1E8EEA7C6E2E440EEB060502EB050A4FEA783E40EA0802F2
:2064400000EA08068EEAB80E0A4032438EEAB85E9644049AD9F80C60C9F84430AE444FEAA4
:20646000F24585EA724585EA9225D9F82C2022442A444FEAB644029D84EAF61484EAD60416
:20648000AD6C22448BEA0C0404EA0A043D44154484EA0B042C444FEAFA2585EABA1585EA30
:2064A0007A652C44214448EA0E054FEA7E37039187EABE0708EA0E01054087EABE570D430F
:2064C0003D444FEAF34787EA734787EA9323D9F83070D9F81010C9F8482037443B444FEAB8
:2064E000B14787EAF11787EAD1071F44039BC9F84C708CEA0A061E40029B2544DC6C5C4492
:20650000E31986EA0C061E44039B4FEAF32484EAB31484EA7364A31900EB030B4FEA75349C
:206520004EEA05000EEA050684EAB50400EA0800304384EAB55404441C444FEAF24383EA95
:20654000724383EA9222D9F83430D9F814001944039B0A448AEA03064FEAB041029B81EA53
:20656000F01181EAD0011B6D114406EA0B060B44634486EA0A061E444FEAFB2383EABB1396
:2065800083EA7B639A1945EA04064FEA743305EA040C83EAB40306EA0E0646EA0C0683EA0E
:2065A000B453334413449044D9F818C0D9F83820C9F850104FEAF74686EA774686EA97276E
:2065C00016184FEABC4282EAFC1282EADC023E441644039AC9F8546082EA0B0707EA080726
:2065E0005740029A526D3244524417444FEAF82282EAB81282EA7862D01944EA03074FEA19
:20660000733204EA030A2F4082EAB30247EA0A0782EAB3523A44024486444FEAF147D9F8C7
:206620003C00D9F81CA087EA714787EA912100EB0C070F444FEABA4181EAFA1181EADA0104
:206640000F440299C9F85870886D03998BEA080C384408440CEA0E0C4FEAFE218CEA0B0CEC
:2066600081EABE11604481EA7E6108442F184FEA723143EA0205254003EA020C81EAB201D1
:2066800045EA0C0581EAB251294401444FEAF64080EA7640D9F8205080EA96260498824442
:2066A0004FEAB54080EAF51080EAD505029856442E44C56DC9F85C6088EA0E0C35440CEAA9
:2066C000070C4FEAF7205D448CEA080C80EAB71080EA77606544054404EB050B4FEA7130EF
:2066E00042EA010480EAB1001C4002EA0106344380EAB1502044029C20340294079C09F194
:2067000020094C4528447FF42FAECDE90D7ECDE90801CDE90A23CDF83C80CDF830B0059B5A
:2067200001991B6851F8042B01911344059A42F8043B069B05929342F1D1002051B0BDE82E
:20674000F08F00BF2DE9F843036803F03F069B18036024BF4368013305460F46144628BF4E
:2067600043609EB1C6F1400991450FD800F128084A4608EB060005F039FD41462846FFF7AA
:2067800085FCB0B9403C34444F440646274404E02846FFF77BFC60B9403C3F2CA7EB04017B
:2067A000F6D844B105F128002246304405F01EFD0020BDE8F8832046FBE70AB1FFF7C2BF52
:2067C00010467047036803F03F035A1C034470B5382A0D4600F128064FF08001044683F8D1
:2067E000281006EB020061D8C2F13802002105F00BFDD4E900315A0F42EAC102DB0012BA3D
:206800001BBA2266636631462046FFF73FFC00284BD1E37A2B7063896B70A3681B0AAB70F6
:20682000A368EB70E37B2B71E3896B71E3681B0AAB71E368EB71E37C2B72638A6B7223692B
:206840001B0AAB722369EB72E37D2B73E38A6B7363691B0AAB736369EB73E37E2B74638B9D
:206860006B74A3691B0AAB74A369EB74E37F2B75E38B6B75E3691B0AAB75E369EB7594F865
:2068800023302B76638C6B76236A1B0AAB76236AEB76A36E4BB994F827302B77E38C6B7788
:2068A000636A1B0AAB77636AEB7770BD0021C2F1400205F0A9FC31462046FFF7E7FB0028DB
:2068C000F3D101463822304691E72DE9F041013B00249B0025462646A4465FF0000E03E022
:2068E0005FEA0C0EBEEB030EBCEB0E0752F8078051F80E70A7FB0878E41955EB080556F174
:2069000000061EF1040E9E4501DCE645ECDD40F80C402C46354600261CF1040C9C45DCDD4E
